{
  "contractName": "ProofOfExistence",
  "abi": [
    {
      "constant": false,
      "inputs": [],
      "name": "renounceOwnership",
      "outputs": [],
      "payable": false,
      "stateMutability": "nonpayable",
      "type": "function"
    },
    {
      "constant": true,
      "inputs": [],
      "name": "owner",
      "outputs": [
        {
          "name": "",
          "type": "address"
        }
      ],
      "payable": false,
      "stateMutability": "view",
      "type": "function"
    },
    {
      "constant": false,
      "inputs": [
        {
          "name": "_newOwner",
          "type": "address"
        }
      ],
      "name": "transferOwnership",
      "outputs": [],
      "payable": false,
      "stateMutability": "nonpayable",
      "type": "function"
    },
    {
      "inputs": [],
      "payable": false,
      "stateMutability": "nonpayable",
      "type": "constructor"
    },
    {
      "anonymous": false,
      "inputs": [
        {
          "indexed": true,
          "name": "previousOwner",
          "type": "address"
        }
      ],
      "name": "OwnershipRenounced",
      "type": "event"
    },
    {
      "anonymous": false,
      "inputs": [
        {
          "indexed": true,
          "name": "previousOwner",
          "type": "address"
        },
        {
          "indexed": true,
          "name": "newOwner",
          "type": "address"
        }
      ],
      "name": "OwnershipTransferred",
      "type": "event"
    },
    {
      "constant": true,
      "inputs": [],
      "name": "checkUserExist",
      "outputs": [
        {
          "name": "",
          "type": "bool"
        }
      ],
      "payable": false,
      "stateMutability": "view",
      "type": "function"
    },
    {
      "constant": false,
      "inputs": [
        {
          "name": "_name",
          "type": "string"
        },
        {
          "name": "_ipfsAddress",
          "type": "string"
        }
      ],
      "name": "registerUser",
      "outputs": [],
      "payable": false,
      "stateMutability": "nonpayable",
      "type": "function"
    },
    {
      "constant": true,
      "inputs": [],
      "name": "getUser",
      "outputs": [
        {
          "name": "name",
          "type": "string"
        },
        {
          "name": "ipfsAddress",
          "type": "string"
        }
      ],
      "payable": false,
      "stateMutability": "view",
      "type": "function"
    },
    {
      "constant": false,
      "inputs": [
        {
          "name": "_name",
          "type": "string"
        },
        {
          "name": "_ipfsAddress",
          "type": "string"
        }
      ],
      "name": "createFile",
      "outputs": [],
      "payable": false,
      "stateMutability": "nonpayable",
      "type": "function"
    },
    {
      "constant": true,
      "inputs": [
        {
          "name": "_index",
          "type": "uint256"
        }
      ],
      "name": "getFile",
      "outputs": [
        {
          "name": "name",
          "type": "string"
        },
        {
          "name": "ipfsAddress",
          "type": "string"
        },
        {
          "name": "createdBlockNumber",
          "type": "uint256"
        }
      ],
      "payable": false,
      "stateMutability": "view",
      "type": "function"
    },
    {
      "constant": false,
      "inputs": [],
      "name": "pauseContract",
      "outputs": [],
      "payable": false,
      "stateMutability": "nonpayable",
      "type": "function"
    },
    {
      "constant": false,
      "inputs": [],
      "name": "unpauseContract",
      "outputs": [],
      "payable": false,
      "stateMutability": "nonpayable",
      "type": "function"
    }
  ],
  "bytecode": "0x60806040526000600360006101000a81548160ff02191690831515021790555034801561002b57600080fd5b50336000806101000a81548173ffffffffffffffffffffffffffffffffffffffff021916908373ffffffffffffffffffffffffffffffffffffffff16021790555061130e8061007b6000396000f3006080604052600436106100a4576000357c0100000000000000000000000000000000000000000000000000000000900463ffffffff1680631d2e4afd146100a95780632bfda31314610158578063439766ce14610271578063715018a61461028857806381ad193a1461029f578063832880e71461034e5780638da5cb5b1461044a57806392d8fdbe146104a1578063b33712c5146104d0578063f2fde38b146104e7575b600080fd5b3480156100b557600080fd5b50610156600480360381019080803590602001908201803590602001908080601f0160208091040260200160405190810160405280939291908181526020018383808284378201915050505050509192919290803590602001908201803590602001908080601f016020809104026020016040519081016040528093929190818152602001838380828437820191505050505050919291929050505061052a565b005b34801561016457600080fd5b50610183600480360381019080803590602001909291905050506107a6565b604051808060200180602001848152602001838103835286818151815260200191508051906020019080838360005b838110156101cd5780820151818401526020810190506101b2565b50505050905090810190601f1680156101fa5780820380516001836020036101000a031916815260200191505b50838103825285818151815260200191508051906020019080838360005b83811015610233578082015181840152602081019050610218565b50505050905090810190601f1680156102605780820380516001836020036101000a031916815260200191505b509550505050505060405180910390f35b34801561027d57600080fd5b5061028661098c565b005b34801561029457600080fd5b5061029d610a04565b005b3480156102ab57600080fd5b5061034c600480360381019080803590602001908201803590602001908080601f0160208091040260200160405190810160405280939291908181526020018383808284378201915050505050509192919290803590602001908201803590602001908080601f0160208091040260200160405190810160405280939291908181526020018383808284378201915050505050509192919290505050610b06565b005b34801561035a57600080fd5b50610363610d52565b604051808060200180602001838103835285818151815260200191508051906020019080838360005b838110156103a757808201518184015260208101905061038c565b50505050905090810190601f1680156103d45780820380516001836020036101000a031916815260200191505b50838103825284818151815260200191508051906020019080838360005b8381101561040d5780820151818401526020810190506103f2565b50505050905090810190601f16801561043a5780820380516001836020036101000a031916815260200191505b5094505050505060405180910390f35b34801561045657600080fd5b5061045f610f22565b604051808273ffffffffffffffffffffffffffffffffffffffff1673ffffffffffffffffffffffffffffffffffffffff16815260200191505060405180910390f35b3480156104ad57600080fd5b506104b6610f47565b604051808215151515815260200191505060405180910390f35b3480156104dc57600080fd5b506104e5610f9e565b005b3480156104f357600080fd5b50610528600480360381019080803573ffffffffffffffffffffffffffffffffffffffff169060200190929190505050611016565b005b600360009054906101000a900460ff161515156105af576040517f08c379a00000000000000000000000000000000000000000000000000000000081526004018080602001828103825260128152602001807f436f6e747261637420697320706175736564000000000000000000000000000081525060200191505060405180910390fd5b600160003373ffffffffffffffffffffffffffffffffffffffff1673ffffffffffffffffffffffffffffffffffffffff16815260200190815260200160002060020160009054906101000a900460ff1615151561069a576040517f08c379a00000000000000000000000000000000000000000000000000000000081526004018080602001828103825260258152602001807f5573657220776974682074686973206164647265737320616c7265616479206581526020017f786973747300000000000000000000000000000000000000000000000000000081525060400191505060405180910390fd5b81600160003373ffffffffffffffffffffffffffffffffffffffff1673ffffffffffffffffffffffffffffffffffffffff16815260200190815260200160002060000190805190602001906106f0929190611177565b5080600160003373ffffffffffffffffffffffffffffffffffffffff1673ffffffffffffffffffffffffffffffffffffffff1681526020019081526020016000206001019080519060200190610747929190611177565b5060018060003373ffffffffffffffffffffffffffffffffffffffff1673ffffffffffffffffffffffffffffffffffffffff16815260200190815260200160002060020160006101000a81548160ff0219169083151502179055505050565b60608060006107b36111f7565b600260003373ffffffffffffffffffffffffffffffffffffffff1673ffffffffffffffffffffffffffffffffffffffff168152602001908152602001600020858154811015156107ff57fe5b906000526020600020906003020160606040519081016040529081600082018054600181600116156101000203166002900480601f0160208091040260200160405190810160405280929190818152602001828054600181600116156101000203166002900480156108b25780601f10610887576101008083540402835291602001916108b2565b820191906000526020600020905b81548152906001019060200180831161089557829003601f168201915b50505050508152602001600182018054600181600116156101000203166002900480601f0160208091040260200160405190810160405280929190818152602001828054600181600116156101000203166002900480156109545780601f1061092957610100808354040283529160200191610954565b820191906000526020600020905b81548152906001019060200180831161093757829003601f168201915b505050505081526020016002820154815250509050806000015181602001518260400151829250819150935093509350509193909250565b6000809054906101000a900473ffffffffffffffffffffffffffffffffffffffff1673ffffffffffffffffffffffffffffffffffffffff163373ffffffffffffffffffffffffffffffffffffffff161415156109e757600080fd5b6001600360006101000a81548160ff021916908315150217905550565b6000809054906101000a900473ffffffffffffffffffffffffffffffffffffffff1673ffffffffffffffffffffffffffffffffffffffff163373ffffffffffffffffffffffffffffffffffffffff16141515610a5f57600080fd5b6000809054906101000a900473ffffffffffffffffffffffffffffffffffffffff1673ffffffffffffffffffffffffffffffffffffffff167ff8df31144d9c2f0f6b59d69b8b98abd5459d07f2742c4df920b25aae33c6482060405160405180910390a260008060006101000a81548173ffffffffffffffffffffffffffffffffffffffff021916908373ffffffffffffffffffffffffffffffffffffffff160217905550565b610b0e6111f7565b600360009054906101000a900460ff16151515610b93576040517f08c379a00000000000000000000000000000000000000000000000000000000081526004018080602001828103825260128152602001807f436f6e747261637420697320706175736564000000000000000000000000000081525060200191505060405180910390fd5b600160003373ffffffffffffffffffffffffffffffffffffffff1673ffffffffffffffffffffffffffffffffffffffff16815260200190815260200160002060020160009054906101000a900460ff161515610c7d576040517f08c379a00000000000000000000000000000000000000000000000000000000081526004018080602001828103825260248152602001807f5573657220776974682074686973206164647265737320646f65736e2774206581526020017f786973740000000000000000000000000000000000000000000000000000000081525060400191505060405180910390fd5b606060405190810160405280848152602001838152602001438152509050600260003373ffffffffffffffffffffffffffffffffffffffff1673ffffffffffffffffffffffffffffffffffffffff16815260200190815260200160002081908060018154018082558091505090600182039060005260206000209060030201600090919290919091506000820151816000019080519060200190610d22929190611219565b506020820151816001019080519060200190610d3f929190611219565b5060408201518160020155505050505050565b606080610d5d611299565b600160003373ffffffffffffffffffffffffffffffffffffffff1673ffffffffffffffffffffffffffffffffffffffff16815260200190815260200160002060606040519081016040529081600082018054600181600116156101000203166002900480601f016020809104026020016040519081016040528092919081815260200182805460018160011615610100020316600290048015610e415780601f10610e1657610100808354040283529160200191610e41565b820191906000526020600020905b815481529060010190602001808311610e2457829003601f168201915b50505050508152602001600182018054600181600116156101000203166002900480601f016020809104026020016040519081016040528092919081815260200182805460018160011615610100020316600290048015610ee35780601f10610eb857610100808354040283529160200191610ee3565b820191906000526020600020905b815481529060010190602001808311610ec657829003601f168201915b505050505081526020016002820160009054906101000a900460ff16151515158152505090508060000151816020015181915080905092509250509091565b6000809054906101000a900473ffffffffffffffffffffffffffffffffffffffff1681565b6000600160003373ffffffffffffffffffffffffffffffffffffffff1673ffffffffffffffffffffffffffffffffffffffff16815260200190815260200160002060020160009054906101000a900460ff16905090565b6000809054906101000a900473ffffffffffffffffffffffffffffffffffffffff1673ffffffffffffffffffffffffffffffffffffffff163373ffffffffffffffffffffffffffffffffffffffff16141515610ff957600080fd5b6000600360006101000a81548160ff021916908315150217905550565b6000809054906101000a900473ffffffffffffffffffffffffffffffffffffffff1673ffffffffffffffffffffffffffffffffffffffff163373ffffffffffffffffffffffffffffffffffffffff1614151561107157600080fd5b61107a8161107d565b50565b600073ffffffffffffffffffffffffffffffffffffffff168173ffffffffffffffffffffffffffffffffffffffff16141515156110b957600080fd5b8073ffffffffffffffffffffffffffffffffffffffff166000809054906101000a900473ffffffffffffffffffffffffffffffffffffffff1673ffffffffffffffffffffffffffffffffffffffff167f8be0079c531659141344cd1fd0a4f28419497f9722a3daafe3b4186f6b6457e060405160405180910390a3806000806101000a81548173ffffffffffffffffffffffffffffffffffffffff021916908373ffffffffffffffffffffffffffffffffffffffff16021790555050565b828054600181600116156101000203166002900490600052602060002090601f016020900481019282601f106111b857805160ff19168380011785556111e6565b828001600101855582156111e6579182015b828111156111e55782518255916020019190600101906111ca565b5b5090506111f391906112bd565b5090565b6060604051908101604052806060815260200160608152602001600081525090565b828054600181600116156101000203166002900490600052602060002090601f016020900481019282601f1061125a57805160ff1916838001178555611288565b82800160010185558215611288579182015b8281111561128757825182559160200191906001019061126c565b5b50905061129591906112bd565b5090565b60606040519081016040528060608152602001606081526020016000151581525090565b6112df91905b808211156112db5760008160009055506001016112c3565b5090565b905600a165627a7a723058209025facd10031f6b78dead5a35386dad39ea55daa9fdb2060f75ec41e522b8bf0029",
  "source": "pragma solidity ^0.4.22;\n\n// Import the Ownable contract from openzeppelin.\n// This allows us to set and transfer ownership of a contract\n// and limit function accessibility using modifiers.\nimport \"./openzeppelin-solidity/contracts/ownership/Ownable.sol\";\n\ncontract ProofOfExistence is Ownable {\n\n  /// ===========================\n  /// Structs\n  /// ===========================\n\n  // Struct describing a user\n  struct UserStruct {\n    string name;\n    string ipfsAddress;\n    bool isValue;\n  }\n\n  // Struct describing a file\n  struct FileStruct {\n    string name;\n    string ipfsAddress;\n    uint createdBlockNumber;\n  }\n\n  /// ===========================\n  /// Storage\n  /// ===========================\n\n  // One user per address\n  mapping (address => UserStruct) users;\n\n  // Many files per user\n  mapping (address => FileStruct[]) files;\n\n  // Used to check if the contract is paused or not\n  bool private contractPaused = false;\n\n  /// ===========================\n  /// Modifiers\n  /// ===========================\n\n  /// Make sure the contract isn't paused for some functions\n  modifier contractNotPaused() {\n    require(!contractPaused, \"Contract is paused\");\n    _;\n  }\n\n  /// Make sure the user exists\n  modifier userMustExist() {\n    require(users[msg.sender].isValue, \"User with this address doesn't exist\");\n    _;\n  }\n\n  /// Make sure the user doesn't already exist\n  modifier userMustNotExist() {\n    require(!users[msg.sender].isValue, \"User with this address already exists\");\n    _;\n  }\n\n  /// ===========================\n  /// Constructor\n  /// ===========================\n\n  constructor() public {\n  }\n\n  /// ===========================\n  /// Functions\n  /// ===========================\n\n  /// USER ======================\n\n  /** @dev Check if a user exists or not\n  * @return boolean indicating whether or not the user exists\n  */\n  function checkUserExist() public view returns (bool) {\n    return users[msg.sender].isValue;\n  }\n\n  /** @dev Register a user\n  * @param _name Name of the user\n  * @param _ipfsAddress The ipfs address of the user\n  */\n  function registerUser(string _name, string _ipfsAddress) public contractNotPaused userMustNotExist {\n    users[msg.sender].name = _name;\n    users[msg.sender].ipfsAddress = _ipfsAddress;\n    users[msg.sender].isValue = true;\n  }\n\n  /** @dev Fetch a user's details\n  * @return name, ipfsAddress of the user\n  */\n  function getUser() public view returns (string name, string ipfsAddress) {\n    UserStruct memory currentUser = users[msg.sender];\n    return (currentUser.name, currentUser.ipfsAddress);\n  }\n\n  /// FILES =====================\n\n  /** @dev Create a file\n  * @param _name Name of the file\n  * @param _ipfsAddress the ipfs address of the file\n  */\n  function createFile(string _name, string _ipfsAddress) public contractNotPaused userMustExist {\n    FileStruct memory newFile = FileStruct(_name, _ipfsAddress, block.number);\n    files[msg.sender].push(newFile);\n  }\n\n  /** @dev Get a file's details\n  * @param _index The index of the file in the user's files array\n  * @return name, ipfsAddress, createdBlockNumber of the file\n  */\n  function getFile(uint256 _index) public view returns (string name, string ipfsAddress, uint createdBlockNumber) {\n    FileStruct memory currentFile = files[msg.sender][_index];\n    return (currentFile.name, currentFile.ipfsAddress, currentFile.createdBlockNumber);\n  }\n\n  /// CIRCUIT BREAKING ===========\n\n  /** @dev Circuit break the contract to disallow certain functionality\n  */\n  function pauseContract() public onlyOwner\n  {\n    contractPaused = true;\n  }\n\n  /** @dev Turn off the circuit breaker of the contract\n  */\n  function unpauseContract() public onlyOwner\n  {\n    contractPaused = false;\n  }\n}\n",
  "sourcePath": "/home/josh/git-personal/ethereum-poe/contracts/ProofOfExistence.sol",
  "compiler": {
    "name": "solc",
    "version": "0.4.24+commit.e67f0147.Emscripten.clang"
  },
  "schemaVersion": "2.0.1",
  "updatedAt": "2018-08-28T08:40:00.722Z"
}